{
  "_format": "hh-sol-artifact-1",
  "contractName": "TruthBond",
  "sourceName": "contracts/TruthBond.sol",
  "abi": [
    {
      "inputs": [
        {
          "internalType": "address",
          "name": "_usdc",
          "type": "address"
        }
      ],
      "stateMutability": "nonpayable",
      "type": "constructor"
    },
    {
      "inputs": [],
      "name": "ReentrancyGuardReentrantCall",
      "type": "error"
    },
    {
      "anonymous": false,
      "inputs": [
        {
          "indexed": true,
          "internalType": "uint256",
          "name": "marketId",
          "type": "uint256"
        },
        {
          "indexed": true,
          "internalType": "address",
          "name": "creator",
          "type": "address"
        },
        {
          "indexed": false,
          "internalType": "string",
          "name": "question",
          "type": "string"
        },
        {
          "indexed": false,
          "internalType": "uint256",
          "name": "resolutionDeadline",
          "type": "uint256"
        }
      ],
      "name": "MarketCreated",
      "type": "event"
    },
    {
      "anonymous": false,
      "inputs": [
        {
          "indexed": true,
          "internalType": "uint256",
          "name": "marketId",
          "type": "uint256"
        },
        {
          "indexed": true,
          "internalType": "address",
          "name": "disputer",
          "type": "address"
        }
      ],
      "name": "MarketDisputed",
      "type": "event"
    },
    {
      "anonymous": false,
      "inputs": [
        {
          "indexed": true,
          "internalType": "uint256",
          "name": "marketId",
          "type": "uint256"
        },
        {
          "indexed": true,
          "internalType": "address",
          "name": "resolver",
          "type": "address"
        },
        {
          "indexed": false,
          "internalType": "bool",
          "name": "outcome",
          "type": "bool"
        }
      ],
      "name": "MarketResolved",
      "type": "event"
    },
    {
      "anonymous": false,
      "inputs": [
        {
          "indexed": true,
          "internalType": "uint256",
          "name": "marketId",
          "type": "uint256"
        },
        {
          "indexed": true,
          "internalType": "address",
          "name": "staker",
          "type": "address"
        },
        {
          "indexed": true,
          "internalType": "bool",
          "name": "isYes",
          "type": "bool"
        },
        {
          "indexed": false,
          "internalType": "uint256",
          "name": "amount",
          "type": "uint256"
        }
      ],
      "name": "StakePlaced",
      "type": "event"
    },
    {
      "anonymous": false,
      "inputs": [
        {
          "indexed": true,
          "internalType": "uint256",
          "name": "marketId",
          "type": "uint256"
        },
        {
          "indexed": true,
          "internalType": "address",
          "name": "claimer",
          "type": "address"
        },
        {
          "indexed": false,
          "internalType": "uint256",
          "name": "amount",
          "type": "uint256"
        }
      ],
      "name": "WinningsClaimed",
      "type": "event"
    },
    {
      "inputs": [],
      "name": "DISPUTE_BOND",
      "outputs": [
        {
          "internalType": "uint256",
          "name": "",
          "type": "uint256"
        }
      ],
      "stateMutability": "view",
      "type": "function"
    },
    {
      "inputs": [],
      "name": "DISPUTE_WINDOW",
      "outputs": [
        {
          "internalType": "uint256",
          "name": "",
          "type": "uint256"
        }
      ],
      "stateMutability": "view",
      "type": "function"
    },
    {
      "inputs": [],
      "name": "MIN_STAKE",
      "outputs": [
        {
          "internalType": "uint256",
          "name": "",
          "type": "uint256"
        }
      ],
      "stateMutability": "view",
      "type": "function"
    },
    {
      "inputs": [],
      "name": "RESOLUTION_BOND",
      "outputs": [
        {
          "internalType": "uint256",
          "name": "",
          "type": "uint256"
        }
      ],
      "stateMutability": "view",
      "type": "function"
    },
    {
      "inputs": [
        {
          "internalType": "uint256",
          "name": "marketId",
          "type": "uint256"
        }
      ],
      "name": "claim",
      "outputs": [],
      "stateMutability": "nonpayable",
      "type": "function"
    },
    {
      "inputs": [
        {
          "internalType": "uint256",
          "name": "",
          "type": "uint256"
        },
        {
          "internalType": "address",
          "name": "",
          "type": "address"
        }
      ],
      "name": "claimed",
      "outputs": [
        {
          "internalType": "bool",
          "name": "",
          "type": "bool"
        }
      ],
      "stateMutability": "view",
      "type": "function"
    },
    {
      "inputs": [
        {
          "internalType": "string",
          "name": "question",
          "type": "string"
        },
        {
          "internalType": "uint256",
          "name": "duration",
          "type": "uint256"
        }
      ],
      "name": "createMarket",
      "outputs": [
        {
          "internalType": "uint256",
          "name": "",
          "type": "uint256"
        }
      ],
      "stateMutability": "nonpayable",
      "type": "function"
    },
    {
      "inputs": [
        {
          "internalType": "uint256",
          "name": "marketId",
          "type": "uint256"
        }
      ],
      "name": "dispute",
      "outputs": [],
      "stateMutability": "nonpayable",
      "type": "function"
    },
    {
      "inputs": [
        {
          "internalType": "uint256",
          "name": "marketId",
          "type": "uint256"
        }
      ],
      "name": "getMarket",
      "outputs": [
        {
          "internalType": "string",
          "name": "question",
          "type": "string"
        },
        {
          "internalType": "address",
          "name": "creator",
          "type": "address"
        },
        {
          "internalType": "uint256",
          "name": "resolutionDeadline",
          "type": "uint256"
        },
        {
          "internalType": "uint256",
          "name": "totalYes",
          "type": "uint256"
        },
        {
          "internalType": "uint256",
          "name": "totalNo",
          "type": "uint256"
        },
        {
          "internalType": "bool",
          "name": "resolved",
          "type": "bool"
        },
        {
          "internalType": "bool",
          "name": "outcome",
          "type": "bool"
        },
        {
          "internalType": "bool",
          "name": "disputed",
          "type": "bool"
        }
      ],
      "stateMutability": "view",
      "type": "function"
    },
    {
      "inputs": [
        {
          "internalType": "uint256",
          "name": "marketId",
          "type": "uint256"
        },
        {
          "internalType": "address",
          "name": "user",
          "type": "address"
        }
      ],
      "name": "getUserStake",
      "outputs": [
        {
          "internalType": "uint256",
          "name": "yesStake",
          "type": "uint256"
        },
        {
          "internalType": "uint256",
          "name": "noStake",
          "type": "uint256"
        }
      ],
      "stateMutability": "view",
      "type": "function"
    },
    {
      "inputs": [],
      "name": "marketCount",
      "outputs": [
        {
          "internalType": "uint256",
          "name": "",
          "type": "uint256"
        }
      ],
      "stateMutability": "view",
      "type": "function"
    },
    {
      "inputs": [
        {
          "internalType": "uint256",
          "name": "",
          "type": "uint256"
        }
      ],
      "name": "markets",
      "outputs": [
        {
          "internalType": "uint256",
          "name": "id",
          "type": "uint256"
        },
        {
          "internalType": "string",
          "name": "question",
          "type": "string"
        },
        {
          "internalType": "address",
          "name": "creator",
          "type": "address"
        },
        {
          "internalType": "uint256",
          "name": "resolutionDeadline",
          "type": "uint256"
        },
        {
          "internalType": "uint256",
          "name": "totalYes",
          "type": "uint256"
        },
        {
          "internalType": "uint256",
          "name": "totalNo",
          "type": "uint256"
        },
        {
          "internalType": "bool",
          "name": "resolved",
          "type": "bool"
        },
        {
          "internalType": "bool",
          "name": "outcome",
          "type": "bool"
        },
        {
          "internalType": "bool",
          "name": "disputed",
          "type": "bool"
        },
        {
          "internalType": "address",
          "name": "disputer",
          "type": "address"
        },
        {
          "internalType": "uint256",
          "name": "resolvedAt",
          "type": "uint256"
        }
      ],
      "stateMutability": "view",
      "type": "function"
    },
    {
      "inputs": [
        {
          "internalType": "uint256",
          "name": "marketId",
          "type": "uint256"
        }
      ],
      "name": "reclaimBond",
      "outputs": [],
      "stateMutability": "nonpayable",
      "type": "function"
    },
    {
      "inputs": [
        {
          "internalType": "uint256",
          "name": "marketId",
          "type": "uint256"
        },
        {
          "internalType": "bool",
          "name": "outcome",
          "type": "bool"
        }
      ],
      "name": "resolve",
      "outputs": [],
      "stateMutability": "nonpayable",
      "type": "function"
    },
    {
      "inputs": [
        {
          "internalType": "uint256",
          "name": "marketId",
          "type": "uint256"
        },
        {
          "internalType": "bool",
          "name": "isYes",
          "type": "bool"
        },
        {
          "internalType": "uint256",
          "name": "amount",
          "type": "uint256"
        }
      ],
      "name": "stake",
      "outputs": [],
      "stateMutability": "nonpayable",
      "type": "function"
    },
    {
      "inputs": [
        {
          "internalType": "uint256",
          "name": "",
          "type": "uint256"
        },
        {
          "internalType": "address",
          "name": "",
          "type": "address"
        },
        {
          "internalType": "bool",
          "name": "",
          "type": "bool"
        }
      ],
      "name": "stakes",
      "outputs": [
        {
          "internalType": "uint256",
          "name": "",
          "type": "uint256"
        }
      ],
      "stateMutability": "view",
      "type": "function"
    },
    {
      "inputs": [],
      "name": "usdc",
      "outputs": [
        {
          "internalType": "contract IERC20",
          "name": "",
          "type": "address"
        }
      ],
      "stateMutability": "view",
      "type": "function"
    }
  ],
  "bytecode": "0x60a06040523480156200001157600080fd5b50604051620035a2380380620035a28339818101604052810190620000379190620000e4565b60016000819055508073ffffffffffffffffffffffffffffffffffffffff1660808173ffffffffffffffffffffffffffffffffffffffff16815250505062000116565b600080fd5b600073ffffffffffffffffffffffffffffffffffffffff82169050919050565b6000620000ac826200007f565b9050919050565b620000be816200009f565b8114620000ca57600080fd5b50565b600081519050620000de81620000b3565b92915050565b600060208284031215620000fd57620000fc6200007a565b5b60006200010d84828501620000cd565b91505092915050565b6080516134466200015c6000396000818161072201528181610a3101528181610b6e01528181610d2201528181611226015281816114940152611d7001526134466000f3fe608060405234801561001057600080fd5b506004361061010b5760003560e01c80639626a230116100a2578063d4e24cf311610071578063d4e24cf3146102c3578063eb44fdd3146102f3578063ec9790821461032a578063f40caf1a14610348578063f585dc57146103645761010b565b80639626a2301461021c578063b1283e771461024d578063cb1c2b5c14610287578063d086d1ec146102a55761010b565b80634c68ae63116100de5780634c68ae631461019657806352a34b05146101b457806386d6282c146101d0578063883c84c1146101ec5761010b565b8063120aa87714610110578063379607f5146101405780633e413bee1461015c578063447da8a61461017a575b600080fd5b61012a60048036038101906101259190611f73565b610382565b6040516101379190611fce565b60405180910390f35b61015a60048036038101906101559190611fe9565b6103b1565b005b610164610b6c565b6040516101719190612075565b60405180910390f35b610194600480360381019061018f91906120bc565b610b90565b005b61019e610f1d565b6040516101ab919061211e565b60405180910390f35b6101ce60048036038101906101c99190612139565b610f25565b005b6101ea60048036038101906101e59190611fe9565b61110d565b005b610206600480360381019061020191906121de565b6113b7565b604051610213919061211e565b60405180910390f35b61023660048036038101906102319190611f73565b611823565b60405161024492919061223e565b60405180910390f35b61026760048036038101906102629190611fe9565b6118fe565b60405161027e9b9a99989796959493929190612306565b60405180910390f35b61028f611a47565b60405161029c919061211e565b60405180910390f35b6102ad611a4e565b6040516102ba919061211e565b60405180910390f35b6102dd60048036038101906102d891906123b8565b611a55565b6040516102ea919061211e565b60405180910390f35b61030d60048036038101906103089190611fe9565b611a87565b60405161032198979695949392919061240b565b60405180910390f35b610332611bc0565b60405161033f919061211e565b60405180910390f35b610362600480360381019061035d9190611fe9565b611bc6565b005b61036c611e7e565b604051610379919061211e565b60405180910390f35b60046020528160005260406000206020528060005260406000206000915091509054906101000a900460ff1681565b6103b9611e85565b60006002600083815260200190815260200160002090508060060160009054906101000a900460ff16610421576040517f08c379a0000000000000000000000000000000000000000000000000000000008152600401610418906124dc565b60405180910390fd5b6004600083815260200190815260200160002060003373ffffffffffffffffffffffffffffffffffffffff1673ffffffffffffffffffffffffffffffffffffffff16815260200190815260200160002060009054906101000a900460ff16156104bf576040517f08c379a00000000000000000000000000000000000000000000000000000000081526004016104b690612548565b60405180910390fd5b8060060160029054906101000a900460ff16156108575760006003600084815260200190815260200160002060003373ffffffffffffffffffffffffffffffffffffffff1673ffffffffffffffffffffffffffffffffffffffff1681526020019081526020016000206000600115151515815260200190815260200160002054905060006003600085815260200190815260200160002060003373ffffffffffffffffffffffffffffffffffffffff1673ffffffffffffffffffffffffffffffffffffffff16815260200190815260200160002060008015151515815260200190815260200160002054905060008211806105ba5750600081115b6105f9576040517f08c379a00000000000000000000000000000000000000000000000000000000081526004016105f0906125b4565b60405180910390fd5b60016004600086815260200190815260200160002060003373ffffffffffffffffffffffffffffffffffffffff1673ffffffffffffffffffffffffffffffffffffffff16815260200190815260200160002060006101000a81548160ff0219169083151502179055506000836005015484600401546106789190612603565b90506000808411801561068f575060008560040154115b156106c957846004015460026106a59190612637565b82856106b19190612637565b6106bb91906126a8565b816106c69190612603565b90505b6000831180156106dd575060008560050154115b1561071757846005015460026106f39190612637565b82846106ff9190612637565b61070991906126a8565b816107149190612603565b90505b600081111561084d577f000000000000000000000000000000000000000000000000000000000000000073ffffffffffffffffffffffffffffffffffffffff1663a9059cbb33836040518363ffffffff1660e01b815260040161077b9291906126d9565b6020604051808303816000875af115801561079a573d6000803e3d6000fd5b505050506040513d601f19601f820116820180604052508101906107be9190612717565b6107fd576040517f08c379a00000000000000000000000000000000000000000000000000000000081526004016107f490612790565b60405180910390fd5b3373ffffffffffffffffffffffffffffffffffffffff16867f5380cf6fe903b40c6d5a9e0dfbca2f3a423f0a21520b4d5947ed5169bdba946d83604051610844919061211e565b60405180910390a35b5050505050610b61565b62015180816007015461086a9190612603565b42116108ab576040517f08c379a00000000000000000000000000000000000000000000000000000000081526004016108a2906127fc565b60405180910390fd5b60006003600084815260200190815260200160002060003373ffffffffffffffffffffffffffffffffffffffff1673ffffffffffffffffffffffffffffffffffffffff16815260200190815260200160002060008360060160019054906101000a900460ff1615151515815260200190815260200160002054905060008111610969576040517f08c379a000000000000000000000000000000000000000000000000000000000815260040161096090612868565b60405180910390fd5b60016004600085815260200190815260200160002060003373ffffffffffffffffffffffffffffffffffffffff1673ffffffffffffffffffffffffffffffffffffffff16815260200190815260200160002060006101000a81548160ff0219169083151502179055506000826005015483600401546109e89190612603565b905060008360060160019054906101000a900460ff16610a0c578360050154610a12565b83600401545b90506000818385610a239190612637565b610a2d91906126a8565b90507f000000000000000000000000000000000000000000000000000000000000000073ffffffffffffffffffffffffffffffffffffffff1663a9059cbb33836040518363ffffffff1660e01b8152600401610a8a9291906126d9565b6020604051808303816000875af1158015610aa9573d6000803e3d6000fd5b505050506040513d601f19601f82011682018060405250810190610acd9190612717565b610b0c576040517f08c379a0000000000000000000000000000000000000000000000000000000008152600401610b0390612790565b60405180910390fd5b3373ffffffffffffffffffffffffffffffffffffffff16867f5380cf6fe903b40c6d5a9e0dfbca2f3a423f0a21520b4d5947ed5169bdba946d83604051610b53919061211e565b60405180910390a350505050505b610b69611ecb565b50565b7f000000000000000000000000000000000000000000000000000000000000000081565b610b98611e85565b6000600260008581526020019081526020016000209050600073ffffffffffffffffffffffffffffffffffffffff168160020160009054906101000a900473ffffffffffffffffffffffffffffffffffffffff1673ffffffffffffffffffffffffffffffffffffffff1603610c42576040517f08c379a0000000000000000000000000000000000000000000000000000000008152600401610c39906128d4565b60405180910390fd5b80600301544210610c88576040517f08c379a0000000000000000000000000000000000000000000000000000000008152600401610c7f90612940565b60405180910390fd5b8060060160009054906101000a900460ff1615610cda576040517f08c379a0000000000000000000000000000000000000000000000000000000008152600401610cd1906129ac565b60405180910390fd5b620f4240821015610d20576040517f08c379a0000000000000000000000000000000000000000000000000000000008152600401610d1790612a18565b60405180910390fd5b7f000000000000000000000000000000000000000000000000000000000000000073ffffffffffffffffffffffffffffffffffffffff166323b872dd3330856040518463ffffffff1660e01b8152600401610d7d93929190612a38565b6020604051808303816000875af1158015610d9c573d6000803e3d6000fd5b505050506040513d601f19601f82011682018060405250810190610dc09190612717565b610dff576040517f08c379a0000000000000000000000000000000000000000000000000000000008152600401610df690612abb565b60405180910390fd5b816003600086815260200190815260200160002060003373ffffffffffffffffffffffffffffffffffffffff1673ffffffffffffffffffffffffffffffffffffffff1681526020019081526020016000206000851515151581526020019081526020016000206000828254610e749190612603565b925050819055508215610ea15781816004016000828254610e959190612603565b92505081905550610ebd565b81816005016000828254610eb59190612603565b925050819055505b8215153373ffffffffffffffffffffffffffffffffffffffff16857fa3879d551ba45a0604aaa4a7c6a8ddb76bfbbc80492db9657cc2b9abbe6d028085604051610f07919061211e565b60405180910390a450610f18611ecb565b505050565b6301312d0081565b610f2d611e85565b60006002600084815260200190815260200160002090508060020160009054906101000a900473ffffffffffffffffffffffffffffffffffffffff1673ffffffffffffffffffffffffffffffffffffffff163373ffffffffffffffffffffffffffffffffffffffff1614610fd6576040517f08c379a0000000000000000000000000000000000000000000000000000000008152600401610fcd90612b27565b60405180910390fd5b806003015442101561101d576040517f08c379a000000000000000000000000000000000000000000000000000000000815260040161101490612b93565b60405180910390fd5b8060060160009054906101000a900460ff161561106f576040517f08c379a0000000000000000000000000000000000000000000000000000000008152600401611066906129ac565b60405180910390fd5b60018160060160006101000a81548160ff021916908315150217905550818160060160016101000a81548160ff0219169083151502179055504281600701819055503373ffffffffffffffffffffffffffffffffffffffff16837fdd895f8f5d520ca7db3fc8259b53d471f0b9c249e49b40c20278f880824e5bb2846040516110f89190611fce565b60405180910390a350611109611ecb565b5050565b611115611e85565b60006002600083815260200190815260200160002090508060060160009054906101000a900460ff1661117d576040517f08c379a000000000000000000000000000000000000000000000000000000000815260040161117490612bff565b60405180910390fd5b8060060160029054906101000a900460ff16156111cf576040517f08c379a00000000000000000000000000000000000000000000000000000000081526004016111c690612c6b565b60405180910390fd5b6201518081600701546111e29190612603565b421115611224576040517f08c379a000000000000000000000000000000000000000000000000000000000815260040161121b90612cd7565b60405180910390fd5b7f000000000000000000000000000000000000000000000000000000000000000073ffffffffffffffffffffffffffffffffffffffff166323b872dd33306301312d006040518463ffffffff1660e01b815260040161128593929190612a38565b6020604051808303816000875af11580156112a4573d6000803e3d6000fd5b505050506040513d601f19601f820116820180604052508101906112c89190612717565b611307576040517f08c379a00000000000000000000000000000000000000000000000000000000081526004016112fe90612d43565b60405180910390fd5b60018160060160026101000a81548160ff021916908315150217905550338160060160036101000a81548173ffffffffffffffffffffffffffffffffffffffff021916908373ffffffffffffffffffffffffffffffffffffffff1602179055503373ffffffffffffffffffffffffffffffffffffffff16827fa4f7294f8b04f2e82ee0c21d813ef6ebf2fc0c6da07bc3967be66263baed1c3960405160405180910390a3506113b4611ecb565b50565b60006113c1611e85565b60008484905011611407576040517f08c379a00000000000000000000000000000000000000000000000000000000081526004016113fe90612daf565b60405180910390fd5b610e1082101561144c576040517f08c379a000000000000000000000000000000000000000000000000000000000815260040161144390612e1b565b60405180910390fd5b62278d00821115611492576040517f08c379a000000000000000000000000000000000000000000000000000000000815260040161148990612e87565b60405180910390fd5b7f000000000000000000000000000000000000000000000000000000000000000073ffffffffffffffffffffffffffffffffffffffff166323b872dd3330629896806040518463ffffffff1660e01b81526004016114f293929190612a38565b6020604051808303816000875af1158015611511573d6000803e3d6000fd5b505050506040513d601f19601f820116820180604052508101906115359190612717565b611574576040517f08c379a000000000000000000000000000000000000000000000000000000000815260040161156b90612ef3565b60405180910390fd5b60006001600081548092919061158990612f13565b91905055905060405180610160016040528082815260200186868080601f016020809104026020016040519081016040528093929190818152602001838380828437600081840152601f19601f8201169050808301925050505050505081526020013373ffffffffffffffffffffffffffffffffffffffff16815260200184426116139190612603565b81526020016000815260200160008152602001600015158152602001600015158152602001600015158152602001600073ffffffffffffffffffffffffffffffffffffffff168152602001600081525060026000838152602001908152602001600020600082015181600001556020820151816001019081611695919061318c565b5060408201518160020160006101000a81548173ffffffffffffffffffffffffffffffffffffffff021916908373ffffffffffffffffffffffffffffffffffffffff160217905550606082015181600301556080820151816004015560a0820151816005015560c08201518160060160006101000a81548160ff02191690831515021790555060e08201518160060160016101000a81548160ff0219169083151502179055506101008201518160060160026101000a81548160ff0219169083151502179055506101208201518160060160036101000a81548173ffffffffffffffffffffffffffffffffffffffff021916908373ffffffffffffffffffffffffffffffffffffffff16021790555061014082015181600701559050503373ffffffffffffffffffffffffffffffffffffffff16817f03e783e31593f59fda73a59d05e2525d610a533995cce4d4750186c3b6bf80bb878787426117f99190612603565b6040516118089392919061329a565b60405180910390a38091505061181c611ecb565b9392505050565b6000806003600085815260200190815260200160002060008473ffffffffffffffffffffffffffffffffffffffff1673ffffffffffffffffffffffffffffffffffffffff16815260200190815260200160002060006001151515158152602001908152602001600020546003600086815260200190815260200160002060008573ffffffffffffffffffffffffffffffffffffffff1673ffffffffffffffffffffffffffffffffffffffff16815260200190815260200160002060008015151515815260200190815260200160002054915091509250929050565b600260205280600052604060002060009150905080600001549080600101805461192790612fb9565b80601f016020809104026020016040519081016040528092919081815260200182805461195390612fb9565b80156119a05780601f10611975576101008083540402835291602001916119a0565b820191906000526020600020905b81548152906001019060200180831161198357829003601f168201915b5050505050908060020160009054906101000a900473ffffffffffffffffffffffffffffffffffffffff16908060030154908060040154908060050154908060060160009054906101000a900460ff16908060060160019054906101000a900460ff16908060060160029054906101000a900460ff16908060060160039054906101000a900473ffffffffffffffffffffffffffffffffffffffff1690806007015490508b565b620f424081565b6298968081565b600360205282600052604060002060205281600052604060002060205280600052604060002060009250925050505481565b6060600080600080600080600080600260008b81526020019081526020016000209050806001018160020160009054906101000a900473ffffffffffffffffffffffffffffffffffffffff168260030154836004015484600501548560060160009054906101000a900460ff168660060160019054906101000a900460ff168760060160029054906101000a900460ff16878054611b2490612fb9565b80601f0160208091040260200160405190810160405280929190818152602001828054611b5090612fb9565b8015611b9d5780601f10611b7257610100808354040283529160200191611b9d565b820191906000526020600020905b815481529060010190602001808311611b8057829003601f168201915b505050505097509850985098509850985098509850985050919395975091939597565b60015481565b611bce611e85565b60006002600083815260200190815260200160002090508060020160009054906101000a900473ffffffffffffffffffffffffffffffffffffffff1673ffffffffffffffffffffffffffffffffffffffff163373ffffffffffffffffffffffffffffffffffffffff1614611c77576040517f08c379a0000000000000000000000000000000000000000000000000000000008152600401611c6e90613318565b60405180910390fd5b8060060160009054906101000a900460ff16611cc8576040517f08c379a0000000000000000000000000000000000000000000000000000000008152600401611cbf906124dc565b60405180910390fd5b8060060160029054906101000a900460ff1615611d1a576040517f08c379a0000000000000000000000000000000000000000000000000000000008152600401611d1190613384565b60405180910390fd5b620151808160070154611d2d9190612603565b4211611d6e576040517f08c379a0000000000000000000000000000000000000000000000000000000008152600401611d65906127fc565b60405180910390fd5b7f000000000000000000000000000000000000000000000000000000000000000073ffffffffffffffffffffffffffffffffffffffff1663a9059cbb8260020160009054906101000a900473ffffffffffffffffffffffffffffffffffffffff16629896806040518363ffffffff1660e01b8152600401611df09291906126d9565b6020604051808303816000875af1158015611e0f573d6000803e3d6000fd5b505050506040513d601f19601f82011682018060405250810190611e339190612717565b611e72576040517f08c379a0000000000000000000000000000000000000000000000000000000008152600401611e69906133f0565b60405180910390fd5b50611e7b611ecb565b50565b6201518081565b600260005403611ec1576040517f3ee5aeb500000000000000000000000000000000000000000000000000000000815260040160405180910390fd5b6002600081905550565b6001600081905550565b600080fd5b600080fd5b6000819050919050565b611ef281611edf565b8114611efd57600080fd5b50565b600081359050611f0f81611ee9565b92915050565b600073ffffffffffffffffffffffffffffffffffffffff82169050919050565b6000611f4082611f15565b9050919050565b611f5081611f35565b8114611f5b57600080fd5b50565b600081359050611f6d81611f47565b92915050565b60008060408385031215611f8a57611f89611ed5565b5b6000611f9885828601611f00565b9250506020611fa985828601611f5e565b9150509250929050565b60008115159050919050565b611fc881611fb3565b82525050565b6000602082019050611fe36000830184611fbf565b92915050565b600060208284031215611fff57611ffe611ed5565b5b600061200d84828501611f00565b91505092915050565b6000819050919050565b600061203b61203661203184611f15565b612016565b611f15565b9050919050565b600061204d82612020565b9050919050565b600061205f82612042565b9050919050565b61206f81612054565b82525050565b600060208201905061208a6000830184612066565b92915050565b61209981611fb3565b81146120a457600080fd5b50565b6000813590506120b681612090565b92915050565b6000806000606084860312156120d5576120d4611ed5565b5b60006120e386828701611f00565b93505060206120f4868287016120a7565b925050604061210586828701611f00565b9150509250925092565b61211881611edf565b82525050565b6000602082019050612133600083018461210f565b92915050565b600080604083850312156121505761214f611ed5565b5b600061215e85828601611f00565b925050602061216f858286016120a7565b9150509250929050565b600080fd5b600080fd5b600080fd5b60008083601f84011261219e5761219d612179565b5b8235905067ffffffffffffffff8111156121bb576121ba61217e565b5b6020830191508360018202830111156121d7576121d6612183565b5b9250929050565b6000806000604084860312156121f7576121f6611ed5565b5b600084013567ffffffffffffffff81111561221557612214611eda565b5b61222186828701612188565b9350935050602061223486828701611f00565b9150509250925092565b6000604082019050612253600083018561210f565b612260602083018461210f565b9392505050565b600081519050919050565b600082825260208201905092915050565b60005b838110156122a1578082015181840152602081019050612286565b60008484015250505050565b6000601f19601f8301169050919050565b60006122c982612267565b6122d38185612272565b93506122e3818560208601612283565b6122ec816122ad565b840191505092915050565b61230081611f35565b82525050565b60006101608201905061231c600083018e61210f565b818103602083015261232e818d6122be565b905061233d604083018c6122f7565b61234a606083018b61210f565b612357608083018a61210f565b61236460a083018961210f565b61237160c0830188611fbf565b61237e60e0830187611fbf565b61238c610100830186611fbf565b61239a6101208301856122f7565b6123a861014083018461210f565b9c9b505050505050505050505050565b6000806000606084860312156123d1576123d0611ed5565b5b60006123df86828701611f00565b93505060206123f086828701611f5e565b9250506040612401868287016120a7565b9150509250925092565b6000610100820190508181036000830152612426818b6122be565b9050612435602083018a6122f7565b612442604083018961210f565b61244f606083018861210f565b61245c608083018761210f565b61246960a0830186611fbf565b61247660c0830185611fbf565b61248360e0830184611fbf565b9998505050505050505050565b7f4e6f74207265736f6c7665640000000000000000000000000000000000000000600082015250565b60006124c6600c83612272565b91506124d182612490565b602082019050919050565b600060208201905081810360008301526124f5816124b9565b9050919050565b7f416c726561647920636c61696d65640000000000000000000000000000000000600082015250565b6000612532600f83612272565b915061253d826124fc565b602082019050919050565b6000602082019050818103600083015261256181612525565b9050919050565b7f4e6f207374616b65000000000000000000000000000000000000000000000000600082015250565b600061259e600883612272565b91506125a982612568565b602082019050919050565b600060208201905081810360008301526125cd81612591565b9050919050565b7f4e487b7100000000000000000000000000000000000000000000000000000000600052601160045260246000fd5b600061260e82611edf565b915061261983611edf565b9250828201905080821115612631576126306125d4565b5b92915050565b600061264282611edf565b915061264d83611edf565b925082820261265b81611edf565b91508282048414831517612672576126716125d4565b5b5092915050565b7f4e487b7100000000000000000000000000000000000000000000000000000000600052601260045260246000fd5b60006126b382611edf565b91506126be83611edf565b9250826126ce576126cd612679565b5b828204905092915050565b60006040820190506126ee60008301856122f7565b6126fb602083018461210f565b9392505050565b60008151905061271181612090565b92915050565b60006020828403121561272d5761272c611ed5565b5b600061273b84828501612702565b91505092915050565b7f5061796f7574206661696c656400000000000000000000000000000000000000600082015250565b600061277a600d83612272565b915061278582612744565b602082019050919050565b600060208201905081810360008301526127a98161276d565b9050919050565b7f446973707574652077696e646f77206163746976650000000000000000000000600082015250565b60006127e6601583612272565b91506127f1826127b0565b602082019050919050565b60006020820190508181036000830152612815816127d9565b9050919050565b7f4e6f2077696e6e696e67207374616b6500000000000000000000000000000000600082015250565b6000612852601083612272565b915061285d8261281c565b602082019050919050565b6000602082019050818103600083015261288181612845565b9050919050565b7f4d61726b657420646f6573206e6f742065786973740000000000000000000000600082015250565b60006128be601583612272565b91506128c982612888565b602082019050919050565b600060208201905081810360008301526128ed816128b1565b9050919050565b7f42657474696e6720636c6f736564000000000000000000000000000000000000600082015250565b600061292a600e83612272565b9150612935826128f4565b602082019050919050565b600060208201905081810360008301526129598161291d565b9050919050565b7f416c7265616479207265736f6c76656400000000000000000000000000000000600082015250565b6000612996601083612272565b91506129a182612960565b602082019050919050565b600060208201905081810360008301526129c581612989565b9050919050565b7f42656c6f77206d696e696d756d207374616b6500000000000000000000000000600082015250565b6000612a02601383612272565b9150612a0d826129cc565b602082019050919050565b60006020820190508181036000830152612a31816129f5565b9050919050565b6000606082019050612a4d60008301866122f7565b612a5a60208301856122f7565b612a67604083018461210f565b949350505050565b7f5374616b65207472616e73666572206661696c65640000000000000000000000600082015250565b6000612aa5601583612272565b9150612ab082612a6f565b602082019050919050565b60006020820190508181036000830152612ad481612a98565b9050919050565b7f4f6e6c792063726561746f722063616e207265736f6c76650000000000000000600082015250565b6000612b11601883612272565b9150612b1c82612adb565b602082019050919050565b60006020820190508181036000830152612b4081612b04565b9050919050565b7f546f6f206561726c790000000000000000000000000000000000000000000000600082015250565b6000612b7d600983612272565b9150612b8882612b47565b602082019050919050565b60006020820190508181036000830152612bac81612b70565b9050919050565b7f4e6f74207265736f6c7665642079657400000000000000000000000000000000600082015250565b6000612be9601083612272565b9150612bf482612bb3565b602082019050919050565b60006020820190508181036000830152612c1881612bdc565b9050919050565b7f416c726561647920646973707574656400000000000000000000000000000000600082015250565b6000612c55601083612272565b9150612c6082612c1f565b602082019050919050565b60006020820190508181036000830152612c8481612c48565b9050919050565b7f446973707574652077696e646f7720636c6f7365640000000000000000000000600082015250565b6000612cc1601583612272565b9150612ccc82612c8b565b602082019050919050565b60006020820190508181036000830152612cf081612cb4565b9050919050565b7f4469737075746520626f6e64206661696c656400000000000000000000000000600082015250565b6000612d2d601383612272565b9150612d3882612cf7565b602082019050919050565b60006020820190508181036000830152612d5c81612d20565b9050919050565b7f5175657374696f6e207265717569726564000000000000000000000000000000600082015250565b6000612d99601183612272565b9150612da482612d63565b602082019050919050565b60006020820190508181036000830152612dc881612d8c565b9050919050565b7f4475726174696f6e20746f6f2073686f72740000000000000000000000000000600082015250565b6000612e05601283612272565b9150612e1082612dcf565b602082019050919050565b60006020820190508181036000830152612e3481612df8565b9050919050565b7f4475726174696f6e20746f6f206c6f6e67000000000000000000000000000000600082015250565b6000612e71601183612272565b9150612e7c82612e3b565b602082019050919050565b60006020820190508181036000830152612ea081612e64565b9050919050565b7f426f6e64207472616e73666572206661696c6564000000000000000000000000600082015250565b6000612edd601483612272565b9150612ee882612ea7565b602082019050919050565b60006020820190508181036000830152612f0c81612ed0565b9050919050565b6000612f1e82611edf565b91507fffffffffffffffffffffffffffffffffffffffffffffffffffffffffffffffff8203612f5057612f4f6125d4565b5b600182019050919050565b7f4e487b7100000000000000000000000000000000000000000000000000000000600052604160045260246000fd5b7f4e487b7100000000000000000000000000000000000000000000000000000000600052602260045260246000fd5b60006002820490506001821680612fd157607f821691505b602082108103612fe457612fe3612f8a565b5b50919050565b60008190508160005260206000209050919050565b60006020601f8301049050919050565b600082821b905092915050565b60006008830261304c7fffffffffffffffffffffffffffffffffffffffffffffffffffffffffffffffff8261300f565b613056868361300f565b95508019841693508086168417925050509392505050565b600061308961308461307f84611edf565b612016565b611edf565b9050919050565b6000819050919050565b6130a38361306e565b6130b76130af82613090565b84845461301c565b825550505050565b600090565b6130cc6130bf565b6130d781848461309a565b505050565b5b818110156130fb576130f06000826130c4565b6001810190506130dd565b5050565b601f8211156131405761311181612fea565b61311a84612fff565b81016020851015613129578190505b61313d61313585612fff565b8301826130dc565b50505b505050565b600082821c905092915050565b600061316360001984600802613145565b1980831691505092915050565b600061317c8383613152565b9150826002028217905092915050565b61319582612267565b67ffffffffffffffff8111156131ae576131ad612f5b565b5b6131b88254612fb9565b6131c38282856130ff565b600060209050601f8311600181146131f657600084156131e4578287015190505b6131ee8582613170565b865550613256565b601f19841661320486612fea565b60005b8281101561322c57848901518255600182019150602085019450602081019050613207565b868310156132495784890151613245601f891682613152565b8355505b6001600288020188555050505b505050505050565b82818337600083830152505050565b60006132798385612272565b935061328683858461325e565b61328f836122ad565b840190509392505050565b600060408201905081810360008301526132b581858761326d565b90506132c4602083018461210f565b949350505050565b7f4f6e6c792063726561746f720000000000000000000000000000000000000000600082015250565b6000613302600c83612272565b915061330d826132cc565b602082019050919050565b60006020820190508181036000830152613331816132f5565b9050919050565b7f5761732064697370757465640000000000000000000000000000000000000000600082015250565b600061336e600c83612272565b915061337982613338565b602082019050919050565b6000602082019050818103600083015261339d81613361565b9050919050565b7f426f6e642072657475726e206661696c65640000000000000000000000000000600082015250565b60006133da601283612272565b91506133e5826133a4565b602082019050919050565b60006020820190508181036000830152613409816133cd565b905091905056fea264697066735822122049edf6df8837d4a5e648d317fb82ab6b8e42f29058ce3a5910bbffd9cee0628e64736f6c63430008140033",
  "linkReferences": {},
  "deployedLinkReferences": {}
}